{
  "address": "0xc2466Fb2480275145e3B53b2AE4C76a33e82bd0b",
  "abi": [
    {
      "inputs": [
        {
          "internalType": "contract ERC20",
          "name": "_tpy",
          "type": "address"
        },
        {
          "internalType": "address",
          "name": "treasury",
          "type": "address"
        },
        {
          "internalType": "address",
          "name": "admin_",
          "type": "address"
        }
      ],
      "stateMutability": "nonpayable",
      "type": "constructor"
    },
    {
      "anonymous": false,
      "inputs": [
        {
          "indexed": true,
          "internalType": "uint256",
          "name": "pid",
          "type": "uint256"
        },
        {
          "indexed": false,
          "internalType": "uint256",
          "name": "apy",
          "type": "uint256"
        },
        {
          "indexed": false,
          "internalType": "uint256",
          "name": "lockPeriod",
          "type": "uint256"
        }
      ],
      "name": "NewPool",
      "type": "event"
    },
    {
      "anonymous": false,
      "inputs": [
        {
          "indexed": false,
          "internalType": "address",
          "name": "referral",
          "type": "address"
        },
        {
          "indexed": false,
          "internalType": "address",
          "name": "referrer",
          "type": "address"
        }
      ],
      "name": "NewReferral",
      "type": "event"
    },
    {
      "anonymous": false,
      "inputs": [
        {
          "indexed": false,
          "internalType": "uint256",
          "name": "referrerReward",
          "type": "uint256"
        }
      ],
      "name": "NewReferrerReward",
      "type": "event"
    },
    {
      "anonymous": false,
      "inputs": [
        {
          "indexed": false,
          "internalType": "address",
          "name": "treasury",
          "type": "address"
        }
      ],
      "name": "NewTreasury",
      "type": "event"
    },
    {
      "anonymous": false,
      "inputs": [
        {
          "indexed": true,
          "internalType": "uint256",
          "name": "pid",
          "type": "uint256"
        },
        {
          "indexed": false,
          "internalType": "uint256",
          "name": "pauseCheckpoint",
          "type": "uint256"
        }
      ],
      "name": "PausePool",
      "type": "event"
    },
    {
      "anonymous": false,
      "inputs": [
        {
          "indexed": true,
          "internalType": "address",
          "name": "user",
          "type": "address"
        },
        {
          "indexed": true,
          "internalType": "uint256",
          "name": "pid",
          "type": "uint256"
        },
        {
          "indexed": false,
          "internalType": "uint256",
          "name": "amount",
          "type": "uint256"
        }
      ],
      "name": "Restake",
      "type": "event"
    },
    {
      "anonymous": false,
      "inputs": [
        {
          "indexed": true,
          "internalType": "bytes32",
          "name": "role",
          "type": "bytes32"
        },
        {
          "indexed": true,
          "internalType": "bytes32",
          "name": "previousAdminRole",
          "type": "bytes32"
        },
        {
          "indexed": true,
          "internalType": "bytes32",
          "name": "newAdminRole",
          "type": "bytes32"
        }
      ],
      "name": "RoleAdminChanged",
      "type": "event"
    },
    {
      "anonymous": false,
      "inputs": [
        {
          "indexed": true,
          "internalType": "bytes32",
          "name": "role",
          "type": "bytes32"
        },
        {
          "indexed": true,
          "internalType": "address",
          "name": "account",
          "type": "address"
        },
        {
          "indexed": true,
          "internalType": "address",
          "name": "sender",
          "type": "address"
        }
      ],
      "name": "RoleGranted",
      "type": "event"
    },
    {
      "anonymous": false,
      "inputs": [
        {
          "indexed": true,
          "internalType": "bytes32",
          "name": "role",
          "type": "bytes32"
        },
        {
          "indexed": true,
          "internalType": "address",
          "name": "account",
          "type": "address"
        },
        {
          "indexed": true,
          "internalType": "address",
          "name": "sender",
          "type": "address"
        }
      ],
      "name": "RoleRevoked",
      "type": "event"
    },
    {
      "anonymous": false,
      "inputs": [
        {
          "indexed": true,
          "internalType": "address",
          "name": "user",
          "type": "address"
        },
        {
          "indexed": true,
          "internalType": "uint256",
          "name": "pid",
          "type": "uint256"
        },
        {
          "indexed": false,
          "internalType": "uint256",
          "name": "amount",
          "type": "uint256"
        }
      ],
      "name": "Stake",
      "type": "event"
    },
    {
      "anonymous": false,
      "inputs": [
        {
          "indexed": true,
          "internalType": "address",
          "name": "user",
          "type": "address"
        },
        {
          "indexed": true,
          "internalType": "uint256",
          "name": "pid",
          "type": "uint256"
        },
        {
          "indexed": false,
          "internalType": "uint256",
          "name": "amount",
          "type": "uint256"
        }
      ],
      "name": "Unstake",
      "type": "event"
    },
    {
      "inputs": [],
      "name": "DEFAULT_ADMIN_ROLE",
      "outputs": [
        {
          "internalType": "bytes32",
          "name": "",
          "type": "bytes32"
        }
      ],
      "stateMutability": "view",
      "type": "function"
    },
    {
      "inputs": [],
      "name": "REINVEST_PERIOD",
      "outputs": [
        {
          "internalType": "uint256",
          "name": "",
          "type": "uint256"
        }
      ],
      "stateMutability": "view",
      "type": "function"
    },
    {
      "inputs": [],
      "name": "SECONDS_IN_YEAR",
      "outputs": [
        {
          "internalType": "uint256",
          "name": "",
          "type": "uint256"
        }
      ],
      "stateMutability": "view",
      "type": "function"
    },
    {
      "inputs": [
        {
          "internalType": "uint256",
          "name": "apy_",
          "type": "uint256"
        },
        {
          "internalType": "uint256",
          "name": "lockPeriod_",
          "type": "uint256"
        }
      ],
      "name": "addPool",
      "outputs": [],
      "stateMutability": "nonpayable",
      "type": "function"
    },
    {
      "inputs": [
        {
          "internalType": "address",
          "name": "",
          "type": "address"
        }
      ],
      "name": "addressToId",
      "outputs": [
        {
          "internalType": "uint256",
          "name": "",
          "type": "uint256"
        }
      ],
      "stateMutability": "view",
      "type": "function"
    },
    {
      "inputs": [
        {
          "internalType": "uint256",
          "name": "pid_",
          "type": "uint256"
        },
        {
          "internalType": "uint256",
          "name": "newApy_",
          "type": "uint256"
        },
        {
          "internalType": "uint256",
          "name": "newLockPeriod_",
          "type": "uint256"
        }
      ],
      "name": "changePool",
      "outputs": [],
      "stateMutability": "nonpayable",
      "type": "function"
    },
    {
      "inputs": [
        {
          "internalType": "uint256",
          "name": "pid_",
          "type": "uint256"
        }
      ],
      "name": "emergencyUnstake",
      "outputs": [],
      "stateMutability": "nonpayable",
      "type": "function"
    },
    {
      "inputs": [
        {
          "internalType": "bytes32",
          "name": "role",
          "type": "bytes32"
        }
      ],
      "name": "getRoleAdmin",
      "outputs": [
        {
          "internalType": "bytes32",
          "name": "",
          "type": "bytes32"
        }
      ],
      "stateMutability": "view",
      "type": "function"
    },
    {
      "inputs": [
        {
          "internalType": "bytes32",
          "name": "role",
          "type": "bytes32"
        },
        {
          "internalType": "address",
          "name": "account",
          "type": "address"
        }
      ],
      "name": "grantRole",
      "outputs": [],
      "stateMutability": "nonpayable",
      "type": "function"
    },
    {
      "inputs": [
        {
          "internalType": "bytes32",
          "name": "role",
          "type": "bytes32"
        },
        {
          "internalType": "address",
          "name": "account",
          "type": "address"
        }
      ],
      "name": "hasRole",
      "outputs": [
        {
          "internalType": "bool",
          "name": "",
          "type": "bool"
        }
      ],
      "stateMutability": "view",
      "type": "function"
    },
    {
      "inputs": [
        {
          "internalType": "uint256",
          "name": "",
          "type": "uint256"
        }
      ],
      "name": "idToAddress",
      "outputs": [
        {
          "internalType": "address",
          "name": "",
          "type": "address"
        }
      ],
      "stateMutability": "view",
      "type": "function"
    },
    {
      "inputs": [
        {
          "internalType": "address",
          "name": "token_",
          "type": "address"
        },
        {
          "internalType": "uint256",
          "name": "amount_",
          "type": "uint256"
        }
      ],
      "name": "inCaseTokensGetStuck",
      "outputs": [],
      "stateMutability": "nonpayable",
      "type": "function"
    },
    {
      "inputs": [
        {
          "internalType": "uint256",
          "name": "pid_",
          "type": "uint256"
        }
      ],
      "name": "pausePool",
      "outputs": [],
      "stateMutability": "nonpayable",
      "type": "function"
    },
    {
      "inputs": [
        {
          "internalType": "uint256",
          "name": "",
          "type": "uint256"
        }
      ],
      "name": "poolInfo",
      "outputs": [
        {
          "internalType": "bool",
          "name": "isPaused",
          "type": "bool"
        },
        {
          "internalType": "uint256",
          "name": "lockPeriod",
          "type": "uint256"
        },
        {
          "internalType": "uint256",
          "name": "apy",
          "type": "uint256"
        },
        {
          "internalType": "uint256",
          "name": "totalStakes",
          "type": "uint256"
        },
        {
          "internalType": "uint256",
          "name": "pauseCheckpoint",
          "type": "uint256"
        }
      ],
      "stateMutability": "view",
      "type": "function"
    },
    {
      "inputs": [
        {
          "internalType": "uint256",
          "name": "",
          "type": "uint256"
        }
      ],
      "name": "referralToReferrer",
      "outputs": [
        {
          "internalType": "uint256",
          "name": "",
          "type": "uint256"
        }
      ],
      "stateMutability": "view",
      "type": "function"
    },
    {
      "inputs": [],
      "name": "referrerReward",
      "outputs": [
        {
          "internalType": "uint256",
          "name": "",
          "type": "uint256"
        }
      ],
      "stateMutability": "view",
      "type": "function"
    },
    {
      "inputs": [
        {
          "internalType": "bytes32",
          "name": "role",
          "type": "bytes32"
        },
        {
          "internalType": "address",
          "name": "account",
          "type": "address"
        }
      ],
      "name": "renounceRole",
      "outputs": [],
      "stateMutability": "nonpayable",
      "type": "function"
    },
    {
      "inputs": [
        {
          "internalType": "bytes32",
          "name": "role",
          "type": "bytes32"
        },
        {
          "internalType": "address",
          "name": "account",
          "type": "address"
        }
      ],
      "name": "revokeRole",
      "outputs": [],
      "stateMutability": "nonpayable",
      "type": "function"
    },
    {
      "inputs": [
        {
          "internalType": "uint256",
          "name": "newReferrerReward_",
          "type": "uint256"
        }
      ],
      "name": "setReferrerReward",
      "outputs": [],
      "stateMutability": "nonpayable",
      "type": "function"
    },
    {
      "inputs": [
        {
          "internalType": "address",
          "name": "newTreasury_",
          "type": "address"
        }
      ],
      "name": "setTreasuryAddress",
      "outputs": [],
      "stateMutability": "nonpayable",
      "type": "function"
    },
    {
      "inputs": [
        {
          "internalType": "uint256",
          "name": "pid_",
          "type": "uint256"
        },
        {
          "internalType": "uint256",
          "name": "amount_",
          "type": "uint256"
        },
        {
          "internalType": "uint256",
          "name": "referrerId_",
          "type": "uint256"
        }
      ],
      "name": "stake",
      "outputs": [],
      "stateMutability": "nonpayable",
      "type": "function"
    },
    {
      "inputs": [
        {
          "internalType": "uint256",
          "name": "pid_",
          "type": "uint256"
        },
        {
          "internalType": "address",
          "name": "user_",
          "type": "address"
        }
      ],
      "name": "stakeOfAuto",
      "outputs": [
        {
          "internalType": "uint256",
          "name": "result",
          "type": "uint256"
        }
      ],
      "stateMutability": "view",
      "type": "function"
    },
    {
      "inputs": [
        {
          "internalType": "uint256",
          "name": "",
          "type": "uint256"
        },
        {
          "internalType": "address",
          "name": "",
          "type": "address"
        }
      ],
      "name": "stakes",
      "outputs": [
        {
          "internalType": "uint256",
          "name": "amount",
          "type": "uint256"
        },
        {
          "internalType": "uint256",
          "name": "checkpoint",
          "type": "uint256"
        },
        {
          "internalType": "uint256",
          "name": "releaseCheckpoint",
          "type": "uint256"
        }
      ],
      "stateMutability": "view",
      "type": "function"
    },
    {
      "inputs": [
        {
          "internalType": "bytes4",
          "name": "interfaceId",
          "type": "bytes4"
        }
      ],
      "name": "supportsInterface",
      "outputs": [
        {
          "internalType": "bool",
          "name": "",
          "type": "bool"
        }
      ],
      "stateMutability": "view",
      "type": "function"
    },
    {
      "inputs": [],
      "name": "totalStakes",
      "outputs": [
        {
          "internalType": "uint256",
          "name": "amount",
          "type": "uint256"
        }
      ],
      "stateMutability": "view",
      "type": "function"
    },
    {
      "inputs": [],
      "name": "tpy",
      "outputs": [
        {
          "internalType": "contract ERC20",
          "name": "",
          "type": "address"
        }
      ],
      "stateMutability": "view",
      "type": "function"
    },
    {
      "inputs": [
        {
          "internalType": "uint256",
          "name": "pid_",
          "type": "uint256"
        },
        {
          "internalType": "uint256",
          "name": "amount_",
          "type": "uint256"
        }
      ],
      "name": "unstake",
      "outputs": [],
      "stateMutability": "nonpayable",
      "type": "function"
    },
    {
      "inputs": [
        {
          "internalType": "address",
          "name": "user_",
          "type": "address"
        }
      ],
      "name": "userReferrer",
      "outputs": [
        {
          "internalType": "address",
          "name": "",
          "type": "address"
        }
      ],
      "stateMutability": "view",
      "type": "function"
    }
  ],
  "transactionHash": "0xc2498c86a2a4b4618f1396a8863032f860b1cf0135e5b109a215469c529ff65b",
  "args": [
    "0xf0A262a304DB30549E6829eEad478eF83D41Ba5c",
    "0xee40C283D027A685a88145e22389fD5Ccf3C14C0",
    "0xee40C283D027A685a88145e22389fD5Ccf3C14C0"
  ],
  "numDeployments": 1,
  "solcInputHash": "b4979b3b85e9b4412090f3d135dded15",
  "bytecode": "0x60a060405260146001553480156200001657600080fd5b50604051620028fc380380620028fc833981016040819052620000399162000145565b606083901b6001600160601b031916608052600080805260076020527f6d5257204ebe7d88fd91ae87941cb2dd9d8062b64ae5a2bd2d28ec40b9fbf6df80546001600160a01b0319166001600160a01b0385161790556200009b9082620000a4565b505050620001b2565b6000828152602081815260408083206001600160a01b038516845290915290205460ff1662000141576000828152602081815260408083206001600160a01b03851684529091529020805460ff19166001179055620001003390565b6001600160a01b0316816001600160a01b0316837f2f8788117e7eff1d82e926ec794901d17c78024a50270940304540a733656f0d60405160405180910390a45b5050565b6000806000606084860312156200015b57600080fd5b8351620001688162000199565b60208501519093506200017b8162000199565b60408501519092506200018e8162000199565b809150509250925092565b6001600160a01b0381168114620001af57600080fd5b50565b60805160601c6126f3620002096000396000818161020b0152818161060b01528181610cfd01528181610e7e01528181610f0501528181611337015281816114c70152818161154e015261169101526126f36000f3fe608060405234801561001057600080fd5b50600436106101c45760003560e01c80637c3fcc38116100f9578063a9a3bba411610097578063cb0e0d7d11610071578063cb0e0d7d14610443578063d547741f14610463578063e33973c214610476578063fec314391461048957600080fd5b8063a9a3bba4146103d3578063bf9befb114610428578063c6d758cb1461043057600080fd5b80639e2c8a5b116100d35780639e2c8a5b14610392578063a0dac0ef146103a5578063a217fddf146103b8578063a638f2e2146103c057600080fd5b80637c3fcc381461035957806383eca5811461036c57806391d148541461037f57600080fd5b80632f2ff15d116101665780635e8ead77116101405780635e8ead771461031657806360670829146103295780636605bfda146103335780636d89dbc51461034657600080fd5b80632f2ff15d146102e557806336568abe146102f85780635dcc93911461030b57600080fd5b80630763f34e116101a25780630763f34e146102455780631526fe271461025c578063248a9ca3146102995780632a2d0c47146102bc57600080fd5b8063012ce501146101c957806301ffc9a7146101de57806304531ac714610206575b600080fd5b6101dc6101d736600461236f565b6104a9565b005b6101f16101ec3660046123b4565b610695565b60405190151581526020015b60405180910390f35b61022d7f000000000000000000000000000000000000000000000000000000000000000081565b6040516001600160a01b0390911681526020016101fd565b61024e60015481565b6040519081526020016101fd565b61026f61026a36600461236f565b6106cc565b6040805195151586526020860194909452928401919091526060830152608082015260a0016101fd565b61024e6102a736600461236f565b60009081526020819052604090206001015490565b61022d6102ca36600461236f565b6007602052600090815260409020546001600160a01b031681565b6101dc6102f3366004612388565b610711565b6101dc610306366004612388565b61073b565b61024e6301e187e081565b6101dc61032436600461236f565b6107b9565b61024e622820a881565b6101dc610341366004612308565b6108cc565b6101dc6103543660046123f7565b610955565b61022d610367366004612308565b610b04565b6101dc61037a36600461236f565b610b39565b6101f161038d366004612388565b610bf0565b6101dc6103a03660046123f7565b610c19565b61024e6103b3366004612388565b610fda565b61024e600081565b6101dc6103ce366004612419565b611183565b61040d6103e1366004612388565b600460209081526000928352604080842090915290825290208054600182015460029092015490919083565b604080519384526020840192909252908201526060016101fd565b61024e611624565b6101dc61043e366004612323565b61167a565b61024e610451366004612308565b60066020526000908152604090205481565b6101dc610471366004612388565b611723565b6101dc610484366004612419565b611748565b61024e61049736600461236f565b60056020526000908152604090205481565b6000818152600460209081526040808320338452825291829020825160608101845281548152600182015492810192909252600201549181018290529042101561050e5760405162461bcd60e51b815260040161050590612552565b60405180910390fd5b80516105535760405162461bcd60e51b81526020600482015260146024820152735450595374616b696e673a3a4e6f207374616b6560601b6044820152606401610505565b8051600380548291908590811061056c5761056c612691565b9060005260206000209060050201600301600082825461058c91906125f0565b90915550506000838152600460209081526040808320338085529083528184208481556001810185905560020193909355518381528592917ff960dbf9e5d0682f7a298ed974e33a28b4464914b7a2bfac12ae419a9afeb280910160405180910390a360405163a9059cbb60e01b8152336004820152602481018290527f00000000000000000000000000000000000000000000000000000000000000006001600160a01b03169063a9059cbb90604401602060405180830381600087803b15801561065757600080fd5b505af115801561066b573d6000803e3d6000fd5b505050506040513d601f19601f8201168201806040525081019061068f919061234d565b50505050565b60006001600160e01b03198216637965db0b60e01b14806106c657506301ffc9a760e01b6001600160e01b03198316145b92915050565b600381815481106106dc57600080fd5b60009182526020909120600590910201805460018201546002830154600384015460049094015460ff90931694509092909185565b60008281526020819052604090206001015461072c816117f8565b6107368383611805565b505050565b6001600160a01b03811633146107ab5760405162461bcd60e51b815260206004820152602f60248201527f416363657373436f6e74726f6c3a2063616e206f6e6c792072656e6f756e636560448201526e103937b632b9903337b91039b2b63360891b6064820152608401610505565b6107b58282611889565b5050565b60006107c4816117f8565b600382815481106107d7576107d7612691565b600091825260209091206005909102015460ff16156108385760405162461bcd60e51b815260206004820152601f60248201527f5450595374616b696e673a3a506f6f6c20616c726561647920706175736564006044820152606401610505565b60016003838154811061084d5761084d612691565b60009182526020909120600590910201805460ff1916911515919091179055426003838154811061088057610880612691565b6000918252602090912060046005909202010155817f4ac16d45333fb0ccc88e0f8e73a5e0b803c341c5eb6a43cdfc9bf808dcb0eb934260405190815260200160405180910390a25050565b60006108d7816117f8565b60008052600760209081527f6d5257204ebe7d88fd91ae87941cb2dd9d8062b64ae5a2bd2d28ec40b9fbf6df80546001600160a01b0319166001600160a01b0385169081179091556040519081527fafa147634b29e2c7bd53ce194256b9f41cfb9ba3036f2b822fdd1d965beea08691015b60405180910390a15050565b6000610960816117f8565b826109ad5760405162461bcd60e51b815260206004820152601a60248201527f5450595374616b696e673a3a4150592063616e277420626520300000000000006044820152606401610505565b6040805160a081018252600080825260208201858152928201868152606083018281526080840183815260038054600180820183559582905295517fc2575a0e9e593c00f959f8c92f12db2869c3395a3b0502d05e2516446f71f85b6005909702968701805460ff191691151591909117905595517fc2575a0e9e593c00f959f8c92f12db2869c3395a3b0502d05e2516446f71f85c86015591517fc2575a0e9e593c00f959f8c92f12db2869c3395a3b0502d05e2516446f71f85d850155517fc2575a0e9e593c00f959f8c92f12db2869c3395a3b0502d05e2516446f71f85e840155517fc2575a0e9e593c00f959f8c92f12db2869c3395a3b0502d05e2516446f71f85f909201919091559054610ac691906125f0565b60408051858152602081018590527f49643072984f4d9969279f6ef8171945beee5e70e82953756c7bbfe260688ab6910160405180910390a2505050565b6001600160a01b0390811660009081526006602090815260408083205483526005825280832054835260079091529020541690565b6000610b44816117f8565b6064821115610bbb5760405162461bcd60e51b815260206004820152603760248201527f5450595374616b696e673a3a5265666572726572207265776172642073686f7560448201527f6c64206265206265747765656e203020616e64203130300000000000000000006064820152608401610505565b60018290556040518281527f3c4afdcd4163603e835947684a82d5d42a36fb3bb91d502941a8f1fbd169604190602001610949565b6000918252602082815260408084206001600160a01b0393909316845291905290205460ff1690565b600082815260046020908152604080832033845290915290204281600201541115610c565760405162461bcd60e51b815260040161050590612552565b8054610c9b5760405162461bcd60e51b81526020600482015260146024820152735450595374616b696e673a3a4e6f207374616b6560601b6044820152606401610505565b6000610ca6846118ee565b82549091508311610cb75782610cba565b81545b9250606460015482610ccc91906125d1565b610cd691906125af565b610cde611624565b610ce89190612597565b6040516370a0823160e01b81523060048201527f00000000000000000000000000000000000000000000000000000000000000006001600160a01b0316906370a082319060240160206040518083038186803b158015610d4757600080fd5b505afa158015610d5b573d6000803e3d6000fd5b505050506040513d601f19601f82011682018060405250810190610d7f91906123de565b1015610d9d5760405162461bcd60e51b815260040161050590612509565b8154831415610dd257600084815260046020908152604080832033845290915281208181556001810182905560020155610df2565b82826000016000828254610de691906125f0565b90915550504260018301555b8260038581548110610e0657610e06612691565b90600052602060002090600502016003016000828254610e2691906125f0565b9091555050604051838152849033907ff960dbf9e5d0682f7a298ed974e33a28b4464914b7a2bfac12ae419a9afeb2809060200160405180910390a360405163a9059cbb60e01b8152336004820152602481018490527f00000000000000000000000000000000000000000000000000000000000000006001600160a01b03169063a9059cbb90604401602060405180830381600087803b158015610eca57600080fd5b505af1158015610ede573d6000803e3d6000fd5b505050506040513d601f19601f82011682018060405250810190610f02919061234d565b507f00000000000000000000000000000000000000000000000000000000000000006001600160a01b031663a9059cbb610f3b33610b04565b606460015485610f4b91906125d1565b610f5591906125af565b6040516001600160e01b031960e085901b1681526001600160a01b0390921660048301526024820152604401602060405180830381600087803b158015610f9b57600080fd5b505af1158015610faf573d6000803e3d6000fd5b505050506040513d601f19601f82011682018060405250810190610fd3919061234d565b5050505050565b60008281526004602090815260408083206001600160a01b038516845282528083208151606081018352815481526001820154938101939093526002015490820152600380548391908690811061103357611033612691565b60009182526020918290206040805160a0810182526005909302909101805460ff1615158352600181015493830193909352600283015490820152600382015460608201526004909101546080820152825193509050826110955750506106c6565b80516000906110a457426110aa565b81608001515b90506000622820a88460200151836110c291906125f0565b6110cc91906125af565b905060006110f2868560400151622820a86301e187e06110ec91906125af565b856119d6565b90506000611122878660400151622820a86301e187e061111291906125af565b61111d876001612597565b6119d6565b9050622820a861113283836125f0565b6020880151611144622820a8876125d1565b61114e9190612597565b61115890876125f0565b61116291906125d1565b61116c91906125af565b6111769083612597565b9998505050505050505050565b6003838154811061119657611196612691565b600091825260209091206005909102015460ff16156111f75760405162461bcd60e51b815260206004820152601a60248201527f5450595374616b696e673a3a506f6f6c206973207061757365640000000000006044820152606401610505565b600083815260046020908152604080832033845282528083206006909252909120546112e0576000828152600760205260409020546001600160a01b031661123e57600091505b6002805490600061124e8361264a565b909155505060028054336000818152600660209081526040808320859055938252600780825284832080546001600160a01b0319168517905594548252600581528382208790558682529384528290205482519182526001600160a01b0316928101929092527f965e581fd2224ce85185c5f48cfbcc00e17fa216f970b274fc724888f6b8994a910160405180910390a15b8054600090156112f6576112f3856118ee565b90505b60646001548261130691906125d1565b61131091906125af565b611318611624565b6113229190612597565b6040516370a0823160e01b81523060048201527f00000000000000000000000000000000000000000000000000000000000000006001600160a01b0316906370a082319060240160206040518083038186803b15801561138157600080fd5b505afa158015611395573d6000803e3d6000fd5b505050506040513d601f19601f820116820180604052508101906113b991906123de565b10156113d75760405162461bcd60e51b815260040161050590612509565b838260000160008282546113eb9190612597565b9091555050426001830155600380548690811061140a5761140a612691565b9060005260206000209060050201600101546114234290565b61142d9190612597565b8260020181905550836003868154811061144957611449612691565b906000526020600020906005020160030160008282546114699190612597565b9091555050604051848152859033907f5af417134f72a9d41143ace85b0a26dce6f550f894f2cbc1eeee8810603d91b69060200160405180910390a36040516323b872dd60e01b8152336004820152306024820152604481018590527f00000000000000000000000000000000000000000000000000000000000000006001600160a01b0316906323b872dd90606401602060405180830381600087803b15801561151357600080fd5b505af1158015611527573d6000803e3d6000fd5b505050506040513d601f19601f8201168201806040525081019061154b919061234d565b507f00000000000000000000000000000000000000000000000000000000000000006001600160a01b031663a9059cbb61158433610b04565b60646001548561159491906125d1565b61159e91906125af565b6040516001600160e01b031960e085901b1681526001600160a01b0390921660048301526024820152604401602060405180830381600087803b1580156115e457600080fd5b505af11580156115f8573d6000803e3d6000fd5b505050506040513d601f19601f8201168201806040525081019061161c919061234d565b505050505050565b6000805b600354811015611676576003818154811061164557611645612691565b906000526020600020906005020160030154826116629190612597565b91508061166e8161264a565b915050611628565b5090565b6000611685816117f8565b826001600160a01b03167f00000000000000000000000000000000000000000000000000000000000000006001600160a01b031614156117185760405162461bcd60e51b815260206004820152602860248201527f5450595374616b696e673a3a54505920746f6b656e2063616e2774206265207760448201526734ba34323930bbb760c11b6064820152608401610505565b610736833384611a1c565b60008281526020819052604090206001015461173e816117f8565b6107368383611889565b6000611753816117f8565b826117a05760405162461bcd60e51b815260206004820152601a60248201527f5450595374616b696e673a3a4150592063616e277420626520300000000000006044820152606401610505565b82600385815481106117b4576117b4612691565b90600052602060002090600502016002018190555081600385815481106117dd576117dd612691565b90600052602060002090600502016001018190555050505050565b6118028133611a6e565b50565b61180f8282610bf0565b6107b5576000828152602081815260408083206001600160a01b03851684529091529020805460ff191660011790556118453390565b6001600160a01b0316816001600160a01b0316837f2f8788117e7eff1d82e926ec794901d17c78024a50270940304540a733656f0d60405160405180910390a45050565b6118938282610bf0565b156107b5576000828152602081815260408083206001600160a01b0385168085529252808320805460ff1916905551339285917ff6391f5c32d9c69d2a47ea670b442974b53935d1edc7fd64eb21e047a839171b9190a45050565b60008181526004602090815260408083203384529091528120600380548391908590811061191e5761191e612691565b90600052602060002090600502019050816000015461193d8533610fda565b61194791906125f0565b92508282600001600082825461195d9190612597565b9091555050805460ff166119715742611977565b80600401545b8260010181905550828160030160008282546119939190612597565b9091555050604051838152849033907fe2d4f7d2cbc42c0e28598ad885ea0822049fcdecbd5a05e5200be15473ccec069060200160405180910390a35050919050565b6000611a11611a0b611a056119eb6001611ac7565b611a00886119fb896127106125d1565b611ae5565b611b23565b84611b57565b86611d7f565b90505b949350505050565b604080516001600160a01b038416602482015260448082018490528251808303909101815260649091019091526020810180516001600160e01b031663a9059cbb60e01b179052610736908490611de7565b611a788282610bf0565b6107b557611a8581611ebc565b611a90836020611ece565b604051602001611aa1929190612461565b60408051601f198184030181529082905262461bcd60e51b8252610505916004016124d6565b6000677fffffffffffffff821115611ade57600080fd5b5060401b90565b600081611af157600080fd5b6000611afd848461206a565b905060016001607f1b036001600160801b0382161115611b1c57600080fd5b9392505050565b6000600f83810b9083900b0160016001607f1b03198112801590611b4e575060016001607f1b038113155b611b1c57600080fd5b600080600084600f0b128015611b705750826001166001145b905060008085600f0b12611b845784611b89565b846000035b6001600160801b03169050600160801b680100000000000000008211611c2357603f82901b91505b8415611c1b576001851615611bc6578102607f1c5b908002607f1c906002851615611bdc578102607f1c5b908002607f1c906004851615611bf2578102607f1c5b908002607f1c906008851615611c08578102607f1c5b60049490941c93908002607f1c90611bb1565b60401c611d39565b603f600160601b831015611c3d5760209290921b91601f19015b600160701b831015611c555760109290921b91600f19015b600160781b831015611c6d5760089290921b91600719015b6001607c1b831015611c855760049290921b91600319015b6001607e1b831015611c9d5760029290921b91600119015b6001607f1b831015611cb55760019290921b91600019015b60005b8615611d225760408210611ccb57600080fd5b6001871615611cf157918302607f1c918101600160801b831115611cf157600192831c92015b928002607f1c9260019190911b90600160801b8410611d1657600193841c9391909101905b600187901c9650611cb8565b60408110611d2f57600080fd5b6040039190911c90505b600083611d465781611d4b565b816000035b905060016001607f1b03198112801590611d6c575060016001607f1b038113155b611d7557600080fd5b9695505050505050565b600081611d8e575060006106c6565b600083600f0b1215611d9f57600080fd5b600f83900b6001600160801b038316810260401c90608084901c026001600160c01b03811115611dce57600080fd5b60401b8119811115611ddf57600080fd5b019392505050565b6000611e3c826040518060400160405280602081526020017f5361666545524332303a206c6f772d6c6576656c2063616c6c206661696c6564815250856001600160a01b03166121cc9092919063ffffffff16565b9050805160001480611e5d575080806020019051810190611e5d919061234d565b6107365760405162461bcd60e51b815260206004820152602a60248201527f5361666545524332303a204552433230206f7065726174696f6e20646964206e6044820152691bdd081cdd58d8d9595960b21b6064820152608401610505565b60606106c66001600160a01b03831660145b60606000611edd8360026125d1565b611ee8906002612597565b67ffffffffffffffff811115611f0057611f006126a7565b6040519080825280601f01601f191660200182016040528015611f2a576020820181803683370190505b509050600360fc1b81600081518110611f4557611f45612691565b60200101906001600160f81b031916908160001a905350600f60fb1b81600181518110611f7457611f74612691565b60200101906001600160f81b031916908160001a9053506000611f988460026125d1565b611fa3906001612597565b90505b600181111561201b576f181899199a1a9b1b9c1cb0b131b232b360811b85600f1660108110611fd757611fd7612691565b1a60f81b828281518110611fed57611fed612691565b60200101906001600160f81b031916908160001a90535060049490941c9361201481612633565b9050611fa6565b508315611b1c5760405162461bcd60e51b815260206004820181905260248201527f537472696e67733a20686578206c656e67746820696e73756666696369656e746044820152606401610505565b60008161207657600080fd5b60006001600160c01b0384116120a15782604085901b816120995761209961267b565b0490506121b8565b60c084811c64010000000081106120ba576020918201911c5b6201000081106120cc576010918201911c5b61010081106120dd576008918201911c5b601081106120ed576004918201911c5b600481106120fd576002918201911c5b6002811061210c576001820191505b60bf820360018603901c6001018260ff0387901b8161212d5761212d61267b565b0492506001600160801b0383111561214457600080fd5b608085901c83026001600160801b038616840260c088901c604089901b82811015612170576001820391505b608084901b92900382811015612187576001820391505b829003608084901c821461219c5760016121ad565b8881816121ab576121ab61267b565b045b870196505050505050505b6001600160801b03811115611b1c57600080fd5b6060611a14848460008585600080866001600160a01b031685876040516121f39190612445565b60006040518083038185875af1925050503d8060008114612230576040519150601f19603f3d011682016040523d82523d6000602084013e612235565b606091505b509150915061224687838387612251565b979650505050505050565b606083156122bd5782516122b6576001600160a01b0385163b6122b65760405162461bcd60e51b815260206004820152601d60248201527f416464726573733a2063616c6c20746f206e6f6e2d636f6e74726163740000006044820152606401610505565b5081611a14565b611a1483838151156122d25781518083602001fd5b8060405162461bcd60e51b815260040161050591906124d6565b80356001600160a01b038116811461230357600080fd5b919050565b60006020828403121561231a57600080fd5b611b1c826122ec565b6000806040838503121561233657600080fd5b61233f836122ec565b946020939093013593505050565b60006020828403121561235f57600080fd5b81518015158114611b1c57600080fd5b60006020828403121561238157600080fd5b5035919050565b6000806040838503121561239b57600080fd5b823591506123ab602084016122ec565b90509250929050565b6000602082840312156123c657600080fd5b81356001600160e01b031981168114611b1c57600080fd5b6000602082840312156123f057600080fd5b5051919050565b6000806040838503121561240a57600080fd5b50508035926020909101359150565b60008060006060848603121561242e57600080fd5b505081359360208301359350604090920135919050565b60008251612457818460208701612607565b9190910192915050565b7f416363657373436f6e74726f6c3a206163636f756e7420000000000000000000815260008351612499816017850160208801612607565b7001034b99036b4b9b9b4b733903937b6329607d1b60179184019182015283516124ca816028840160208801612607565b01602801949350505050565b60208152600082518060208401526124f5816040850160208701612607565b601f01601f19169190910160400192915050565b60208082526029908201527f5450595374616b696e673a3a4e6f7420656e6f75676820746f6b656e7320696e6040820152680818dbdb9d1c9858dd60ba1b606082015260800190565b60208082526025908201527f5450595374616b696e673a3a4c6f636b20706572696f6420646f6e2774207061604082015264737365642160d81b606082015260800190565b600082198211156125aa576125aa612665565b500190565b6000826125cc57634e487b7160e01b600052601260045260246000fd5b500490565b60008160001904831182151516156125eb576125eb612665565b500290565b60008282101561260257612602612665565b500390565b60005b8381101561262257818101518382015260200161260a565b8381111561068f5750506000910152565b60008161264257612642612665565b506000190190565b600060001982141561265e5761265e612665565b5060010190565b634e487b7160e01b600052601160045260246000fd5b634e487b7160e01b600052601260045260246000fd5b634e487b7160e01b600052603260045260246000fd5b634e487b7160e01b600052604160045260246000fdfea2646970667358221220e28c28723669fc604aba300c187e1791bbcabe81842af6dcd1516a4da42b003064736f6c63430008070033",
  "devdoc": {
    "kind": "dev",
    "methods": {
      "addPool(uint256,uint256)": {
        "params": {
          "apy_": ": New staking pool apy",
          "lockPeriod_": ": New staking pool lock period"
        }
      },
      "changePool(uint256,uint256,uint256)": {
        "params": {
          "newApy_": ": Staking pool new apy",
          "newLockPeriod_": ": Staking pool new lock period",
          "pid_": ": Staking pool ID"
        }
      },
      "emergencyUnstake(uint256)": {
        "params": {
          "pid_": ": Staking pool ID"
        }
      },
      "getRoleAdmin(bytes32)": {
        "details": "Returns the admin role that controls `role`. See {grantRole} and {revokeRole}. To change a role's admin, use {_setRoleAdmin}."
      },
      "grantRole(bytes32,address)": {
        "details": "Grants `role` to `account`. If `account` had not been already granted `role`, emits a {RoleGranted} event. Requirements: - the caller must have ``role``'s admin role. May emit a {RoleGranted} event."
      },
      "hasRole(bytes32,address)": {
        "details": "Returns `true` if `account` has been granted `role`."
      },
      "inCaseTokensGetStuck(address,uint256)": {
        "params": {
          "amount_": "amount of tokens.",
          "token_": "token for withdraw."
        }
      },
      "pausePool(uint256)": {
        "params": {
          "pid_": ": Staking pool ID"
        }
      },
      "renounceRole(bytes32,address)": {
        "details": "Revokes `role` from the calling account. Roles are often managed via {grantRole} and {revokeRole}: this function's purpose is to provide a mechanism for accounts to lose their privileges if they are compromised (such as when a trusted device is misplaced). If the calling account had been revoked `role`, emits a {RoleRevoked} event. Requirements: - the caller must be `account`. May emit a {RoleRevoked} event."
      },
      "revokeRole(bytes32,address)": {
        "details": "Revokes `role` from `account`. If `account` had been granted `role`, emits a {RoleRevoked} event. Requirements: - the caller must have ``role``'s admin role. May emit a {RoleRevoked} event."
      },
      "setReferrerReward(uint256)": {
        "params": {
          "newReferrerReward_": ": New % of referrer system reward"
        }
      },
      "setTreasuryAddress(address)": {
        "params": {
          "newTreasury_": ": New treasury address"
        }
      },
      "stake(uint256,uint256,uint256)": {
        "params": {
          "amount_": ": TPY token amount to stake",
          "pid_": ": Staking pool ID",
          "referrerId_": ": Referrer ID"
        }
      },
      "stakeOfAuto(uint256,address)": {
        "params": {
          "pid_": ": Staking pool ID",
          "user_": ": User's address"
        }
      },
      "supportsInterface(bytes4)": {
        "details": "See {IERC165-supportsInterface}."
      },
      "unstake(uint256,uint256)": {
        "params": {
          "amount_": ": TPY token amount to unstake",
          "pid_": ": Staking pool ID"
        }
      },
      "userReferrer(address)": {
        "params": {
          "user_": ": referral address"
        }
      }
    },
    "version": 1
  },
  "userdoc": {
    "kind": "user",
    "methods": {
      "addPool(uint256,uint256)": {
        "notice": "Add new staking pool"
      },
      "changePool(uint256,uint256,uint256)": {
        "notice": "Change existing staking pool"
      },
      "emergencyUnstake(uint256)": {
        "notice": "Emergency unstake"
      },
      "inCaseTokensGetStuck(address,uint256)": {
        "notice": "withdraw stuck tokens"
      },
      "pausePool(uint256)": {
        "notice": "Pause existing staking pool"
      },
      "setReferrerReward(uint256)": {
        "notice": "Set referrer system reward"
      },
      "setTreasuryAddress(address)": {
        "notice": "Set treasury address for referral system"
      },
      "stake(uint256,uint256,uint256)": {
        "notice": "Stake"
      },
      "stakeOfAuto(uint256,address)": {
        "notice": "Get current amount of user's stake including rewards"
      },
      "totalStakes()": {
        "notice": "Return total stakes in all pools"
      },
      "unstake(uint256,uint256)": {
        "notice": "Unstake"
      },
      "userReferrer(address)": {
        "notice": "Return user referrer address"
      }
    },
    "version": 1
  },
  "storageLayout": {
    "storage": [
      {
        "astId": 24,
        "contract": "contracts/TPYStaking.sol:TPYStaking",
        "label": "_roles",
        "offset": 0,
        "slot": "0",
        "type": "t_mapping(t_bytes32,t_struct(RoleData)19_storage)"
      },
      {
        "astId": 5937,
        "contract": "contracts/TPYStaking.sol:TPYStaking",
        "label": "referrerReward",
        "offset": 0,
        "slot": "1",
        "type": "t_uint256"
      },
      {
        "astId": 5939,
        "contract": "contracts/TPYStaking.sol:TPYStaking",
        "label": "idCounter",
        "offset": 0,
        "slot": "2",
        "type": "t_uint256"
      },
      {
        "astId": 5943,
        "contract": "contracts/TPYStaking.sol:TPYStaking",
        "label": "poolInfo",
        "offset": 0,
        "slot": "3",
        "type": "t_array(t_struct(PoolInfo)5918_storage)dyn_storage"
      },
      {
        "astId": 5950,
        "contract": "contracts/TPYStaking.sol:TPYStaking",
        "label": "stakes",
        "offset": 0,
        "slot": "4",
        "type": "t_mapping(t_uint256,t_mapping(t_address,t_struct(UserStake)5925_storage))"
      },
      {
        "astId": 5954,
        "contract": "contracts/TPYStaking.sol:TPYStaking",
        "label": "referralToReferrer",
        "offset": 0,
        "slot": "5",
        "type": "t_mapping(t_uint256,t_uint256)"
      },
      {
        "astId": 5958,
        "contract": "contracts/TPYStaking.sol:TPYStaking",
        "label": "addressToId",
        "offset": 0,
        "slot": "6",
        "type": "t_mapping(t_address,t_uint256)"
      },
      {
        "astId": 5962,
        "contract": "contracts/TPYStaking.sol:TPYStaking",
        "label": "idToAddress",
        "offset": 0,
        "slot": "7",
        "type": "t_mapping(t_uint256,t_address)"
      }
    ],
    "types": {
      "t_address": {
        "encoding": "inplace",
        "label": "address",
        "numberOfBytes": "20"
      },
      "t_array(t_struct(PoolInfo)5918_storage)dyn_storage": {
        "base": "t_struct(PoolInfo)5918_storage",
        "encoding": "dynamic_array",
        "label": "struct TPYStaking.PoolInfo[]",
        "numberOfBytes": "32"
      },
      "t_bool": {
        "encoding": "inplace",
        "label": "bool",
        "numberOfBytes": "1"
      },
      "t_bytes32": {
        "encoding": "inplace",
        "label": "bytes32",
        "numberOfBytes": "32"
      },
      "t_mapping(t_address,t_bool)": {
        "encoding": "mapping",
        "key": "t_address",
        "label": "mapping(address => bool)",
        "numberOfBytes": "32",
        "value": "t_bool"
      },
      "t_mapping(t_address,t_struct(UserStake)5925_storage)": {
        "encoding": "mapping",
        "key": "t_address",
        "label": "mapping(address => struct TPYStaking.UserStake)",
        "numberOfBytes": "32",
        "value": "t_struct(UserStake)5925_storage"
      },
      "t_mapping(t_address,t_uint256)": {
        "encoding": "mapping",
        "key": "t_address",
        "label": "mapping(address => uint256)",
        "numberOfBytes": "32",
        "value": "t_uint256"
      },
      "t_mapping(t_bytes32,t_struct(RoleData)19_storage)": {
        "encoding": "mapping",
        "key": "t_bytes32",
        "label": "mapping(bytes32 => struct AccessControl.RoleData)",
        "numberOfBytes": "32",
        "value": "t_struct(RoleData)19_storage"
      },
      "t_mapping(t_uint256,t_address)": {
        "encoding": "mapping",
        "key": "t_uint256",
        "label": "mapping(uint256 => address)",
        "numberOfBytes": "32",
        "value": "t_address"
      },
      "t_mapping(t_uint256,t_mapping(t_address,t_struct(UserStake)5925_storage))": {
        "encoding": "mapping",
        "key": "t_uint256",
        "label": "mapping(uint256 => mapping(address => struct TPYStaking.UserStake))",
        "numberOfBytes": "32",
        "value": "t_mapping(t_address,t_struct(UserStake)5925_storage)"
      },
      "t_mapping(t_uint256,t_uint256)": {
        "encoding": "mapping",
        "key": "t_uint256",
        "label": "mapping(uint256 => uint256)",
        "numberOfBytes": "32",
        "value": "t_uint256"
      },
      "t_struct(PoolInfo)5918_storage": {
        "encoding": "inplace",
        "label": "struct TPYStaking.PoolInfo",
        "members": [
          {
            "astId": 5909,
            "contract": "contracts/TPYStaking.sol:TPYStaking",
            "label": "isPaused",
            "offset": 0,
            "slot": "0",
            "type": "t_bool"
          },
          {
            "astId": 5911,
            "contract": "contracts/TPYStaking.sol:TPYStaking",
            "label": "lockPeriod",
            "offset": 0,
            "slot": "1",
            "type": "t_uint256"
          },
          {
            "astId": 5913,
            "contract": "contracts/TPYStaking.sol:TPYStaking",
            "label": "apy",
            "offset": 0,
            "slot": "2",
            "type": "t_uint256"
          },
          {
            "astId": 5915,
            "contract": "contracts/TPYStaking.sol:TPYStaking",
            "label": "totalStakes",
            "offset": 0,
            "slot": "3",
            "type": "t_uint256"
          },
          {
            "astId": 5917,
            "contract": "contracts/TPYStaking.sol:TPYStaking",
            "label": "pauseCheckpoint",
            "offset": 0,
            "slot": "4",
            "type": "t_uint256"
          }
        ],
        "numberOfBytes": "160"
      },
      "t_struct(RoleData)19_storage": {
        "encoding": "inplace",
        "label": "struct AccessControl.RoleData",
        "members": [
          {
            "astId": 16,
            "contract": "contracts/TPYStaking.sol:TPYStaking",
            "label": "members",
            "offset": 0,
            "slot": "0",
            "type": "t_mapping(t_address,t_bool)"
          },
          {
            "astId": 18,
            "contract": "contracts/TPYStaking.sol:TPYStaking",
            "label": "adminRole",
            "offset": 0,
            "slot": "1",
            "type": "t_bytes32"
          }
        ],
        "numberOfBytes": "64"
      },
      "t_struct(UserStake)5925_storage": {
        "encoding": "inplace",
        "label": "struct TPYStaking.UserStake",
        "members": [
          {
            "astId": 5920,
            "contract": "contracts/TPYStaking.sol:TPYStaking",
            "label": "amount",
            "offset": 0,
            "slot": "0",
            "type": "t_uint256"
          },
          {
            "astId": 5922,
            "contract": "contracts/TPYStaking.sol:TPYStaking",
            "label": "checkpoint",
            "offset": 0,
            "slot": "1",
            "type": "t_uint256"
          },
          {
            "astId": 5924,
            "contract": "contracts/TPYStaking.sol:TPYStaking",
            "label": "releaseCheckpoint",
            "offset": 0,
            "slot": "2",
            "type": "t_uint256"
          }
        ],
        "numberOfBytes": "96"
      },
      "t_uint256": {
        "encoding": "inplace",
        "label": "uint256",
        "numberOfBytes": "32"
      }
    }
  }
}